{
	"contracts/Multicall2.sol": {
		"Multicall2": {
			"abi": [
				{
					"inputs": [
						{
							"components": [
								{
									"internalType": "address",
									"name": "target",
									"type": "address"
								},
								{
									"internalType": "bytes",
									"name": "callData",
									"type": "bytes"
								}
							],
							"internalType": "struct Multicall2.Call[]",
							"name": "calls",
							"type": "tuple[]"
						}
					],
					"name": "aggregate",
					"outputs": [
						{
							"internalType": "uint256",
							"name": "blockNumber",
							"type": "uint256"
						},
						{
							"internalType": "bytes[]",
							"name": "returnData",
							"type": "bytes[]"
						}
					],
					"stateMutability": "nonpayable",
					"type": "function"
				},
				{
					"inputs": [
						{
							"internalType": "uint256",
							"name": "blockNumber",
							"type": "uint256"
						}
					],
					"name": "getBlockHash",
					"outputs": [
						{
							"internalType": "bytes32",
							"name": "blockHash",
							"type": "bytes32"
						}
					],
					"stateMutability": "view",
					"type": "function"
				},
				{
					"inputs": [],
					"name": "getCurrentBlockCoinbase",
					"outputs": [
						{
							"internalType": "address",
							"name": "coinbase",
							"type": "address"
						}
					],
					"stateMutability": "view",
					"type": "function"
				},
				{
					"inputs": [],
					"name": "getCurrentBlockDifficulty",
					"outputs": [
						{
							"internalType": "uint256",
							"name": "difficulty",
							"type": "uint256"
						}
					],
					"stateMutability": "view",
					"type": "function"
				},
				{
					"inputs": [],
					"name": "getCurrentBlockGasLimit",
					"outputs": [
						{
							"internalType": "uint256",
							"name": "gaslimit",
							"type": "uint256"
						}
					],
					"stateMutability": "view",
					"type": "function"
				},
				{
					"inputs": [],
					"name": "getCurrentBlockTimestamp",
					"outputs": [
						{
							"internalType": "uint256",
							"name": "timestamp",
							"type": "uint256"
						}
					],
					"stateMutability": "view",
					"type": "function"
				},
				{
					"inputs": [
						{
							"internalType": "address",
							"name": "addr",
							"type": "address"
						}
					],
					"name": "getEthBalance",
					"outputs": [
						{
							"internalType": "uint256",
							"name": "balance",
							"type": "uint256"
						}
					],
					"stateMutability": "view",
					"type": "function"
				},
				{
					"inputs": [],
					"name": "getLastBlockHash",
					"outputs": [
						{
							"internalType": "bytes32",
							"name": "blockHash",
							"type": "bytes32"
						}
					],
					"stateMutability": "view",
					"type": "function"
				},
				{
					"inputs": [
						{
							"internalType": "bool",
							"name": "requireSuccess",
							"type": "bool"
						},
						{
							"components": [
								{
									"internalType": "address",
									"name": "target",
									"type": "address"
								},
								{
									"internalType": "bytes",
									"name": "callData",
									"type": "bytes"
								}
							],
							"internalType": "struct Multicall2.Call[]",
							"name": "calls",
							"type": "tuple[]"
						}
					],
					"name": "tryAggregate",
					"outputs": [
						{
							"components": [
								{
									"internalType": "bool",
									"name": "success",
									"type": "bool"
								},
								{
									"internalType": "bytes",
									"name": "returnData",
									"type": "bytes"
								}
							],
							"internalType": "struct Multicall2.Result[]",
							"name": "returnData",
							"type": "tuple[]"
						}
					],
					"stateMutability": "nonpayable",
					"type": "function"
				},
				{
					"inputs": [
						{
							"internalType": "bool",
							"name": "requireSuccess",
							"type": "bool"
						},
						{
							"components": [
								{
									"internalType": "address",
									"name": "target",
									"type": "address"
								},
								{
									"internalType": "bytes",
									"name": "callData",
									"type": "bytes"
								}
							],
							"internalType": "struct Multicall2.Call[]",
							"name": "calls",
							"type": "tuple[]"
						}
					],
					"name": "tryBlockAndAggregate",
					"outputs": [
						{
							"internalType": "uint256",
							"name": "blockNumber",
							"type": "uint256"
						},
						{
							"internalType": "bytes32",
							"name": "blockHash",
							"type": "bytes32"
						},
						{
							"components": [
								{
									"internalType": "bool",
									"name": "success",
									"type": "bool"
								},
								{
									"internalType": "bytes",
									"name": "returnData",
									"type": "bytes"
								}
							],
							"internalType": "struct Multicall2.Result[]",
							"name": "returnData",
							"type": "tuple[]"
						}
					],
					"stateMutability": "nonpayable",
					"type": "function"
				}
			],
			"devdoc": {
				"details": "Optimized for PancakeSwap and other DeFi interfaces",
				"kind": "dev",
				"methods": {},
				"title": "Multicall2 - Aggregate results from multiple read-only function calls",
				"version": 1
			},
			"evm": {
				"assembly": "    /* \"contracts/Multicall2.sol\":248:2921  contract Multicall2 {\r... */\n  mstore(0x40, 0x80)\n  callvalue\n  dup1\n  iszero\n  tag_1\n  jumpi\n  0x00\n  dup1\n  revert\ntag_1:\n  pop\n  dataSize(sub_0)\n  dup1\n  dataOffset(sub_0)\n  0x00\n  codecopy\n  0x00\n  return\nstop\n\nsub_0: assembly {\n        /* \"contracts/Multicall2.sol\":248:2921  contract Multicall2 {\r... */\n      mstore(0x40, 0x80)\n      callvalue\n      dup1\n      iszero\n      tag_1\n      jumpi\n      0x00\n      dup1\n      revert\n    tag_1:\n      pop\n      jumpi(tag_2, lt(calldatasize, 0x04))\n      shr(0xe0, calldataload(0x00))\n      dup1\n      0x72425d9d\n      gt\n      tag_13\n      jumpi\n      dup1\n      0x72425d9d\n      eq\n      tag_8\n      jumpi\n      dup1\n      0x86d516e8\n      eq\n      tag_9\n      jumpi\n      dup1\n      0xa8b0574e\n      eq\n      tag_10\n      jumpi\n      dup1\n      0xbce38bd7\n      eq\n      tag_11\n      jumpi\n      dup1\n      0xee82ac5e\n      eq\n      tag_12\n      jumpi\n      jump(tag_2)\n    tag_13:\n      dup1\n      0x0f28c97d\n      eq\n      tag_3\n      jumpi\n      dup1\n      0x252dba42\n      eq\n      tag_4\n      jumpi\n      dup1\n      0x27e86d6e\n      eq\n      tag_5\n      jumpi\n      dup1\n      0x399542e9\n      eq\n      tag_6\n      jumpi\n      dup1\n      0x4d2301cc\n      eq\n      tag_7\n      jumpi\n    tag_2:\n      0x00\n      dup1\n      revert\n        /* \"contracts/Multicall2.sol\":2152:2274  function getCurrentBlockTimestamp() public view returns (uint256 timestamp) {\r... */\n    tag_3:\n      tag_14\n      tag_15\n      jump\t// in\n    tag_14:\n      mload(0x40)\n      tag_16\n      swap2\n      swap1\n      tag_27\n      jump\t// in\n    tag_16:\n      mload(0x40)\n      dup1\n      swap2\n      sub\n      swap1\n      return\n        /* \"contracts/Multicall2.sol\":520:973  function aggregate(Call[] memory calls) public returns (uint256 blockNumber, bytes[] memory returnData) {\r... */\n    tag_4:\n      tag_18\n      tag_19\n      calldatasize\n      0x04\n      tag_20\n      jump\t// in\n    tag_19:\n      tag_21\n      jump\t// in\n    tag_18:\n      mload(0x40)\n      tag_16\n      swap3\n      swap2\n      swap1\n      tag_23\n      jump\t// in\n        /* \"contracts/Multicall2.sol\":2792:2918  function getLastBlockHash() public view returns (bytes32 blockHash) {\r... */\n    tag_5:\n      tag_14\n      tag_25\n      jump\t// in\n        /* \"contracts/Multicall2.sol\":1657:1963  function tryBlockAndAggregate(bool requireSuccess, Call[] memory calls) public returns (uint256 blockNumber, bytes32 blockHash, Result[] memory returnData) {\r... */\n    tag_6:\n      tag_28\n      tag_29\n      calldatasize\n      0x04\n      tag_30\n      jump\t// in\n    tag_29:\n      tag_31\n      jump\t// in\n    tag_28:\n      mload(0x40)\n      tag_16\n      swap4\n      swap3\n      swap2\n      swap1\n      tag_33\n      jump\t// in\n        /* \"contracts/Multicall2.sol\":2668:2784  function getEthBalance(address addr) public view returns (uint256 balance) {\r... */\n    tag_7:\n      tag_14\n      tag_35\n      calldatasize\n      0x04\n      tag_36\n      jump\t// in\n    tag_35:\n      tag_37\n      jump\t// in\n        /* \"contracts/Multicall2.sol\":2282:2408  function getCurrentBlockDifficulty() public view returns (uint256 difficulty) {\r... */\n    tag_8:\n      tag_14\n      tag_40\n      jump\t// in\n        /* \"contracts/Multicall2.sol\":2416:2534  function getCurrentBlockGasLimit() public view returns (uint256 gaslimit) {\r... */\n    tag_9:\n      tag_14\n      tag_43\n      jump\t// in\n        /* \"contracts/Multicall2.sol\":2542:2660  function getCurrentBlockCoinbase() public view returns (address coinbase) {\r... */\n    tag_10:\n      tag_45\n      tag_46\n      jump\t// in\n    tag_45:\n      mload(0x40)\n      tag_16\n      swap2\n      swap1\n      tag_48\n      jump\t// in\n        /* \"contracts/Multicall2.sol\":1068:1568  function tryAggregate(bool requireSuccess, Call[] memory calls) public returns (Result[] memory returnData) {\r... */\n    tag_11:\n      tag_49\n      tag_50\n      calldatasize\n      0x04\n      tag_30\n      jump\t// in\n    tag_50:\n      tag_51\n      jump\t// in\n    tag_49:\n      mload(0x40)\n      tag_16\n      swap2\n      swap1\n      tag_53\n      jump\t// in\n        /* \"contracts/Multicall2.sol\":2008:2144  function getBlockHash(uint256 blockNumber) public view returns (bytes32 blockHash) {\r... */\n    tag_12:\n      tag_14\n      tag_55\n      calldatasize\n      0x04\n      tag_56\n      jump\t// in\n    tag_55:\n      tag_57\n      jump\t// in\n        /* \"contracts/Multicall2.sol\":2152:2274  function getCurrentBlockTimestamp() public view returns (uint256 timestamp) {\r... */\n    tag_15:\n        /* \"contracts/Multicall2.sol\":2251:2266  block.timestamp */\n      timestamp\n      swap1\n        /* \"contracts/Multicall2.sol\":2152:2274  function getCurrentBlockTimestamp() public view returns (uint256 timestamp) {\r... */\n      jump\t// out\n        /* \"contracts/Multicall2.sol\":520:973  function aggregate(Call[] memory calls) public returns (uint256 blockNumber, bytes[] memory returnData) {\r... */\n    tag_21:\n        /* \"contracts/Multicall2.sol\":697:709  calls.length */\n      dup1\n      mload\n        /* \"contracts/Multicall2.sol\":649:661  block.number */\n      number\n      swap1\n        /* \"contracts/Multicall2.sol\":597:622  bytes[] memory returnData */\n      0x60\n      swap1\n        /* \"contracts/Multicall2.sol\":685:710  new bytes[](calls.length) */\n      0xffffffffffffffff\n      dup2\n      gt\n      dup1\n      iszero\n      tag_61\n      jumpi\n      0x00\n      dup1\n      revert\n    tag_61:\n      pop\n      mload(0x40)\n      swap1\n      dup1\n      dup3\n      mstore\n      dup1\n      0x20\n      mul\n      0x20\n      add\n      dup3\n      add\n      0x40\n      mstore\n      dup1\n      iszero\n      tag_62\n      jumpi\n      dup2\n      0x20\n      add\n    tag_63:\n      0x60\n      dup2\n      mstore\n      0x20\n      add\n      swap1\n      0x01\n      swap1\n      sub\n      swap1\n      dup2\n      tag_63\n      jumpi\n      swap1\n      pop\n    tag_62:\n      pop\n        /* \"contracts/Multicall2.sol\":672:710  returnData = new bytes[](calls.length) */\n      swap1\n      pop\n        /* \"contracts/Multicall2.sol\":726:735  uint256 i */\n      0x00\n        /* \"contracts/Multicall2.sol\":721:966  for (uint256 i = 0; i < calls.length; i++) {\r... */\n    tag_64:\n        /* \"contracts/Multicall2.sol\":745:750  calls */\n      dup4\n        /* \"contracts/Multicall2.sol\":745:757  calls.length */\n      mload\n        /* \"contracts/Multicall2.sol\":741:742  i */\n      dup2\n        /* \"contracts/Multicall2.sol\":741:757  i < calls.length */\n      lt\n        /* \"contracts/Multicall2.sol\":721:966  for (uint256 i = 0; i < calls.length; i++) {\r... */\n      iszero\n      tag_65\n      jumpi\n        /* \"contracts/Multicall2.sol\":780:792  bool success */\n      0x00\n        /* \"contracts/Multicall2.sol\":794:810  bytes memory ret */\n      0x60\n        /* \"contracts/Multicall2.sol\":814:819  calls */\n      dup6\n        /* \"contracts/Multicall2.sol\":820:821  i */\n      dup4\n        /* \"contracts/Multicall2.sol\":814:822  calls[i] */\n      dup2\n      mload\n      dup2\n      lt\n      tag_67\n      jumpi\n      invalid\n    tag_67:\n      0x20\n      mul\n      0x20\n      add\n      add\n      mload\n        /* \"contracts/Multicall2.sol\":814:829  calls[i].target */\n      0x00\n      add\n      mload\n      sub(shl(0xa0, 0x01), 0x01)\n        /* \"contracts/Multicall2.sol\":814:834  calls[i].target.call */\n      and\n        /* \"contracts/Multicall2.sol\":835:840  calls */\n      dup7\n        /* \"contracts/Multicall2.sol\":841:842  i */\n      dup5\n        /* \"contracts/Multicall2.sol\":835:843  calls[i] */\n      dup2\n      mload\n      dup2\n      lt\n      tag_68\n      jumpi\n      invalid\n    tag_68:\n      0x20\n      mul\n      0x20\n      add\n      add\n      mload\n        /* \"contracts/Multicall2.sol\":835:852  calls[i].callData */\n      0x20\n      add\n      mload\n        /* \"contracts/Multicall2.sol\":814:853  calls[i].target.call(calls[i].callData) */\n      mload(0x40)\n      tag_69\n      swap2\n      swap1\n      tag_70\n      jump\t// in\n    tag_69:\n      0x00\n      mload(0x40)\n      dup1\n      dup4\n      sub\n      dup2\n      0x00\n      dup7\n      gas\n      call\n      swap2\n      pop\n      pop\n      returndatasize\n      dup1\n      0x00\n      dup2\n      eq\n      tag_73\n      jumpi\n      mload(0x40)\n      swap2\n      pop\n      and(add(returndatasize, 0x3f), not(0x1f))\n      dup3\n      add\n      0x40\n      mstore\n      returndatasize\n      dup3\n      mstore\n      returndatasize\n      0x00\n      0x20\n      dup5\n      add\n      returndatacopy\n      jump(tag_72)\n    tag_73:\n      0x60\n      swap2\n      pop\n    tag_72:\n      pop\n        /* \"contracts/Multicall2.sol\":779:853  (bool success, bytes memory ret) = calls[i].target.call(calls[i].callData) */\n      swap2\n      pop\n      swap2\n      pop\n        /* \"contracts/Multicall2.sol\":876:883  success */\n      dup2\n        /* \"contracts/Multicall2.sol\":868:920  require(success, \"Multicall aggregate: call failed\") */\n      tag_74\n      jumpi\n      mload(0x40)\n      shl(0xe5, 0x461bcd)\n      dup2\n      mstore\n      0x04\n      add\n      tag_75\n      swap1\n      tag_76\n      jump\t// in\n    tag_75:\n      mload(0x40)\n      dup1\n      swap2\n      sub\n      swap1\n      revert\n    tag_74:\n        /* \"contracts/Multicall2.sol\":951:954  ret */\n      dup1\n        /* \"contracts/Multicall2.sol\":935:945  returnData */\n      dup5\n        /* \"contracts/Multicall2.sol\":946:947  i */\n      dup5\n        /* \"contracts/Multicall2.sol\":935:948  returnData[i] */\n      dup2\n      mload\n      dup2\n      lt\n      tag_77\n      jumpi\n      invalid\n    tag_77:\n      0x20\n      swap1\n      dup2\n      mul\n      swap2\n      swap1\n      swap2\n      add\n      add\n        /* \"contracts/Multicall2.sol\":935:954  returnData[i] = ret */\n      mstore\n      pop\n      pop\n        /* \"contracts/Multicall2.sol\":759:762  i++ */\n      0x01\n      add\n        /* \"contracts/Multicall2.sol\":721:966  for (uint256 i = 0; i < calls.length; i++) {\r... */\n      jump(tag_64)\n    tag_65:\n      pop\n        /* \"contracts/Multicall2.sol\":520:973  function aggregate(Call[] memory calls) public returns (uint256 blockNumber, bytes[] memory returnData) {\r... */\n      swap2\n      pop\n      swap2\n      jump\t// out\n        /* \"contracts/Multicall2.sol\":2792:2918  function getLastBlockHash() public view returns (bytes32 blockHash) {\r... */\n    tag_25:\n      not(0x00)\n        /* \"contracts/Multicall2.sol\":2893:2905  block.number */\n      number\n        /* \"contracts/Multicall2.sol\":2893:2909  block.number - 1 */\n      add\n        /* \"contracts/Multicall2.sol\":2883:2910  blockhash(block.number - 1) */\n      blockhash\n      swap1\n        /* \"contracts/Multicall2.sol\":2792:2918  function getLastBlockHash() public view returns (bytes32 blockHash) {\r... */\n      jump\t// out\n        /* \"contracts/Multicall2.sol\":1657:1963  function tryBlockAndAggregate(bool requireSuccess, Call[] memory calls) public returns (uint256 blockNumber, bytes32 blockHash, Result[] memory returnData) {\r... */\n    tag_31:\n        /* \"contracts/Multicall2.sol\":1838:1850  block.number */\n      number\n        /* \"contracts/Multicall2.sol\":1873:1896  blockhash(block.number) */\n      dup1\n      blockhash\n        /* \"contracts/Multicall2.sol\":1785:1811  Result[] memory returnData */\n      0x60\n        /* \"contracts/Multicall2.sol\":1920:1955  tryAggregate(requireSuccess, calls) */\n      tag_80\n        /* \"contracts/Multicall2.sol\":1933:1947  requireSuccess */\n      dup6\n        /* \"contracts/Multicall2.sol\":1949:1954  calls */\n      dup6\n        /* \"contracts/Multicall2.sol\":1920:1932  tryAggregate */\n      tag_51\n        /* \"contracts/Multicall2.sol\":1920:1955  tryAggregate(requireSuccess, calls) */\n      jump\t// in\n    tag_80:\n        /* \"contracts/Multicall2.sol\":1907:1955  returnData = tryAggregate(requireSuccess, calls) */\n      swap1\n      pop\n        /* \"contracts/Multicall2.sol\":1657:1963  function tryBlockAndAggregate(bool requireSuccess, Call[] memory calls) public returns (uint256 blockNumber, bytes32 blockHash, Result[] memory returnData) {\r... */\n      swap3\n      pop\n      swap3\n      pop\n      swap3\n      jump\t// out\n        /* \"contracts/Multicall2.sol\":2668:2784  function getEthBalance(address addr) public view returns (uint256 balance) {\r... */\n    tag_37:\n      sub(shl(0xa0, 0x01), 0x01)\n        /* \"contracts/Multicall2.sol\":2764:2776  addr.balance */\n      and\n      balance\n      swap1\n        /* \"contracts/Multicall2.sol\":2668:2784  function getEthBalance(address addr) public view returns (uint256 balance) {\r... */\n      jump\t// out\n        /* \"contracts/Multicall2.sol\":2282:2408  function getCurrentBlockDifficulty() public view returns (uint256 difficulty) {\r... */\n    tag_40:\n        /* \"contracts/Multicall2.sol\":2384:2400  block.difficulty */\n      difficulty\n      swap1\n        /* \"contracts/Multicall2.sol\":2282:2408  function getCurrentBlockDifficulty() public view returns (uint256 difficulty) {\r... */\n      jump\t// out\n        /* \"contracts/Multicall2.sol\":2416:2534  function getCurrentBlockGasLimit() public view returns (uint256 gaslimit) {\r... */\n    tag_43:\n        /* \"contracts/Multicall2.sol\":2512:2526  block.gaslimit */\n      gaslimit\n      swap1\n        /* \"contracts/Multicall2.sol\":2416:2534  function getCurrentBlockGasLimit() public view returns (uint256 gaslimit) {\r... */\n      jump\t// out\n        /* \"contracts/Multicall2.sol\":2542:2660  function getCurrentBlockCoinbase() public view returns (address coinbase) {\r... */\n    tag_46:\n        /* \"contracts/Multicall2.sol\":2638:2652  block.coinbase */\n      coinbase\n      swap1\n        /* \"contracts/Multicall2.sol\":2542:2660  function getCurrentBlockCoinbase() public view returns (address coinbase) {\r... */\n      jump\t// out\n        /* \"contracts/Multicall2.sol\":1068:1568  function tryAggregate(bool requireSuccess, Call[] memory calls) public returns (Result[] memory returnData) {\r... */\n    tag_51:\n        /* \"contracts/Multicall2.sol\":1148:1174  Result[] memory returnData */\n      0x60\n        /* \"contracts/Multicall2.sol\":1213:1218  calls */\n      dup2\n        /* \"contracts/Multicall2.sol\":1213:1225  calls.length */\n      mload\n        /* \"contracts/Multicall2.sol\":1200:1226  new Result[](calls.length) */\n      0xffffffffffffffff\n      dup2\n      gt\n      dup1\n      iszero\n      tag_86\n      jumpi\n      0x00\n      dup1\n      revert\n    tag_86:\n      pop\n      mload(0x40)\n      swap1\n      dup1\n      dup3\n      mstore\n      dup1\n      0x20\n      mul\n      0x20\n      add\n      dup3\n      add\n      0x40\n      mstore\n      dup1\n      iszero\n      tag_87\n      jumpi\n      dup2\n      0x20\n      add\n    tag_88:\n      tag_89\n      tag_90\n      jump\t// in\n    tag_89:\n      dup2\n      mstore\n      0x20\n      add\n      swap1\n      0x01\n      swap1\n      sub\n      swap1\n      dup2\n      tag_88\n      jumpi\n      swap1\n      pop\n    tag_87:\n      pop\n        /* \"contracts/Multicall2.sol\":1187:1226  returnData = new Result[](calls.length) */\n      swap1\n      pop\n        /* \"contracts/Multicall2.sol\":1242:1251  uint256 i */\n      0x00\n        /* \"contracts/Multicall2.sol\":1237:1561  for (uint256 i = 0; i < calls.length; i++) {\r... */\n    tag_91:\n        /* \"contracts/Multicall2.sol\":1261:1266  calls */\n      dup3\n        /* \"contracts/Multicall2.sol\":1261:1273  calls.length */\n      mload\n        /* \"contracts/Multicall2.sol\":1257:1258  i */\n      dup2\n        /* \"contracts/Multicall2.sol\":1257:1273  i < calls.length */\n      lt\n        /* \"contracts/Multicall2.sol\":1237:1561  for (uint256 i = 0; i < calls.length; i++) {\r... */\n      iszero\n      tag_92\n      jumpi\n        /* \"contracts/Multicall2.sol\":1296:1308  bool success */\n      0x00\n        /* \"contracts/Multicall2.sol\":1310:1326  bytes memory ret */\n      0x60\n        /* \"contracts/Multicall2.sol\":1330:1335  calls */\n      dup5\n        /* \"contracts/Multicall2.sol\":1336:1337  i */\n      dup4\n        /* \"contracts/Multicall2.sol\":1330:1338  calls[i] */\n      dup2\n      mload\n      dup2\n      lt\n      tag_94\n      jumpi\n      invalid\n    tag_94:\n      0x20\n      mul\n      0x20\n      add\n      add\n      mload\n        /* \"contracts/Multicall2.sol\":1330:1345  calls[i].target */\n      0x00\n      add\n      mload\n      sub(shl(0xa0, 0x01), 0x01)\n        /* \"contracts/Multicall2.sol\":1330:1350  calls[i].target.call */\n      and\n        /* \"contracts/Multicall2.sol\":1351:1356  calls */\n      dup6\n        /* \"contracts/Multicall2.sol\":1357:1358  i */\n      dup5\n        /* \"contracts/Multicall2.sol\":1351:1359  calls[i] */\n      dup2\n      mload\n      dup2\n      lt\n      tag_95\n      jumpi\n      invalid\n    tag_95:\n      0x20\n      mul\n      0x20\n      add\n      add\n      mload\n        /* \"contracts/Multicall2.sol\":1351:1368  calls[i].callData */\n      0x20\n      add\n      mload\n        /* \"contracts/Multicall2.sol\":1330:1369  calls[i].target.call(calls[i].callData) */\n      mload(0x40)\n      tag_96\n      swap2\n      swap1\n      tag_70\n      jump\t// in\n    tag_96:\n      0x00\n      mload(0x40)\n      dup1\n      dup4\n      sub\n      dup2\n      0x00\n      dup7\n      gas\n      call\n      swap2\n      pop\n      pop\n      returndatasize\n      dup1\n      0x00\n      dup2\n      eq\n      tag_99\n      jumpi\n      mload(0x40)\n      swap2\n      pop\n      and(add(returndatasize, 0x3f), not(0x1f))\n      dup3\n      add\n      0x40\n      mstore\n      returndatasize\n      dup3\n      mstore\n      returndatasize\n      0x00\n      0x20\n      dup5\n      add\n      returndatacopy\n      jump(tag_98)\n    tag_99:\n      0x60\n      swap2\n      pop\n    tag_98:\n      pop\n        /* \"contracts/Multicall2.sol\":1295:1369  (bool success, bytes memory ret) = calls[i].target.call(calls[i].callData) */\n      swap2\n      pop\n      swap2\n      pop\n        /* \"contracts/Multicall2.sol\":1390:1404  requireSuccess */\n      dup6\n        /* \"contracts/Multicall2.sol\":1386:1497  if (requireSuccess) {\r... */\n      iszero\n      tag_101\n      jumpi\n        /* \"contracts/Multicall2.sol\":1433:1440  success */\n      dup2\n        /* \"contracts/Multicall2.sol\":1425:1481  require(success, \"Multicall2 tryAggregate: call failed\") */\n      tag_101\n      jumpi\n      mload(0x40)\n      shl(0xe5, 0x461bcd)\n      dup2\n      mstore\n      0x04\n      add\n      tag_75\n      swap1\n      tag_103\n      jump\t// in\n    tag_101:\n        /* \"contracts/Multicall2.sol\":1529:1549  Result(success, ret) */\n      mload(0x40)\n      dup1\n      0x40\n      add\n      0x40\n      mstore\n      dup1\n        /* \"contracts/Multicall2.sol\":1536:1543  success */\n      dup4\n        /* \"contracts/Multicall2.sol\":1529:1549  Result(success, ret) */\n      iszero\n      iszero\n      dup2\n      mstore\n      0x20\n      add\n        /* \"contracts/Multicall2.sol\":1545:1548  ret */\n      dup3\n        /* \"contracts/Multicall2.sol\":1529:1549  Result(success, ret) */\n      dup2\n      mstore\n      pop\n        /* \"contracts/Multicall2.sol\":1513:1523  returnData */\n      dup5\n        /* \"contracts/Multicall2.sol\":1524:1525  i */\n      dup5\n        /* \"contracts/Multicall2.sol\":1513:1526  returnData[i] */\n      dup2\n      mload\n      dup2\n      lt\n      tag_104\n      jumpi\n      invalid\n    tag_104:\n      0x20\n      swap1\n      dup2\n      mul\n      swap2\n      swap1\n      swap2\n      add\n      add\n        /* \"contracts/Multicall2.sol\":1513:1549  returnData[i] = Result(success, ret) */\n      mstore\n      pop\n      pop\n        /* \"contracts/Multicall2.sol\":1275:1278  i++ */\n      0x01\n      add\n        /* \"contracts/Multicall2.sol\":1237:1561  for (uint256 i = 0; i < calls.length; i++) {\r... */\n      jump(tag_91)\n    tag_92:\n      pop\n        /* \"contracts/Multicall2.sol\":1068:1568  function tryAggregate(bool requireSuccess, Call[] memory calls) public returns (Result[] memory returnData) {\r... */\n      swap3\n      swap2\n      pop\n      pop\n      jump\t// out\n        /* \"contracts/Multicall2.sol\":2008:2144  function getBlockHash(uint256 blockNumber) public view returns (bytes32 blockHash) {\r... */\n    tag_57:\n        /* \"contracts/Multicall2.sol\":2114:2136  blockhash(blockNumber) */\n      blockhash\n      swap1\n        /* \"contracts/Multicall2.sol\":2008:2144  function getBlockHash(uint256 blockNumber) public view returns (bytes32 blockHash) {\r... */\n      jump\t// out\n    tag_90:\n      0x40\n      dup1\n      mload\n      dup1\n      dup3\n      add\n      swap1\n      swap2\n      mstore\n      0x00\n      dup2\n      mstore\n      0x60\n      0x20\n      dup3\n      add\n      mstore\n      swap1\n      jump\t// out\n        /* \"--CODEGEN--\":5:135   */\n    tag_107:\n        /* \"--CODEGEN--\":72:92   */\n      dup1\n      calldataload\n      sub(shl(0xa0, 0x01), 0x01)\n        /* \"--CODEGEN--\":15376:15430   */\n      dup2\n      and\n        /* \"--CODEGEN--\":16116:16151   */\n      dup2\n      eq\n        /* \"--CODEGEN--\":16106:16108   */\n      tag_109\n      jumpi\n        /* \"--CODEGEN--\":16165:16166   */\n      0x00\n      dup1\n        /* \"--CODEGEN--\":16155:16167   */\n      revert\n        /* \"--CODEGEN--\":16106:16108   */\n    tag_109:\n        /* \"--CODEGEN--\":57:135   */\n      swap3\n      swap2\n      pop\n      pop\n      jump\t// out\n        /* \"--CODEGEN--\":175:910   */\n    tag_110:\n      0x00\n        /* \"--CODEGEN--\":311:314   */\n      dup3\n        /* \"--CODEGEN--\":304:308   */\n      0x1f\n        /* \"--CODEGEN--\":296:302   */\n      dup4\n        /* \"--CODEGEN--\":292:309   */\n      add\n        /* \"--CODEGEN--\":288:315   */\n      slt\n        /* \"--CODEGEN--\":278:280   */\n      tag_112\n      jumpi\n      dup1\n      dup2\n        /* \"--CODEGEN--\":319:331   */\n      revert\n        /* \"--CODEGEN--\":278:280   */\n    tag_112:\n        /* \"--CODEGEN--\":366:372   */\n      dup2\n        /* \"--CODEGEN--\":353:373   */\n      calldataload\n        /* \"--CODEGEN--\":12619:12637   */\n      0xffffffffffffffff\n      dup1\n        /* \"--CODEGEN--\":12611:12617   */\n      dup3\n        /* \"--CODEGEN--\":12608:12638   */\n      gt\n        /* \"--CODEGEN--\":12605:12607   */\n      iszero\n      tag_113\n      jumpi\n      dup3\n      dup4\n        /* \"--CODEGEN--\":12641:12653   */\n      revert\n        /* \"--CODEGEN--\":12605:12607   */\n    tag_113:\n        /* \"--CODEGEN--\":12686:12690   */\n      0x20\n        /* \"--CODEGEN--\":388:487   */\n      tag_114\n        /* \"--CODEGEN--\":12686:12690   */\n      dup2\n      dup3\n        /* \"--CODEGEN--\":12678:12684   */\n      dup6\n        /* \"--CODEGEN--\":12674:12691   */\n      mul\n        /* \"--CODEGEN--\":12739:12754   */\n      add\n        /* \"--CODEGEN--\":388:487   */\n      tag_115\n      jump\t// in\n    tag_114:\n        /* \"--CODEGEN--\":515:536   */\n      dup4\n      dup2\n      mstore\n        /* \"--CODEGEN--\":379:487   */\n      swap4\n      pop\n        /* \"--CODEGEN--\":572:586   */\n      dup1\n      dup5\n      add\n        /* \"--CODEGEN--\":547:564   */\n      dup6\n      dup3\n      add\n        /* \"--CODEGEN--\":667:668   */\n      0x00\n        /* \"--CODEGEN--\":652:904   */\n    tag_116:\n        /* \"--CODEGEN--\":677:683   */\n      dup6\n        /* \"--CODEGEN--\":674:675   */\n      dup2\n        /* \"--CODEGEN--\":671:684   */\n      lt\n        /* \"--CODEGEN--\":652:904   */\n      iszero\n      tag_118\n      jumpi\n        /* \"--CODEGEN--\":760:763   */\n      dup2\n        /* \"--CODEGEN--\":747:764   */\n      calldataload\n        /* \"--CODEGEN--\":551:557   */\n      dup9\n        /* \"--CODEGEN--\":735:765   */\n      add\n        /* \"--CODEGEN--\":1635:1639   */\n      0x40\n      dup1\n        /* \"--CODEGEN--\":1614:1633   */\n      not(0x1f)\n        /* \"--CODEGEN--\":735:765   */\n      dup4\n        /* \"--CODEGEN--\":1618:1621   */\n      dup14\n        /* \"--CODEGEN--\":1614:1633   */\n      sub\n      add\n        /* \"--CODEGEN--\":1610:1640   */\n      slt\n        /* \"--CODEGEN--\":1607:1609   */\n      iszero\n      tag_119\n      jumpi\n        /* \"--CODEGEN--\":667:668   */\n      0x00\n      dup1\n        /* \"--CODEGEN--\":1643:1655   */\n      revert\n        /* \"--CODEGEN--\":1607:1609   */\n    tag_119:\n        /* \"--CODEGEN--\":1671:1691   */\n      tag_120\n        /* \"--CODEGEN--\":1635:1639   */\n      dup2\n        /* \"--CODEGEN--\":1671:1691   */\n      tag_115\n      jump\t// in\n    tag_120:\n        /* \"--CODEGEN--\":1775:1824   */\n      tag_121\n        /* \"--CODEGEN--\":1820:1823   */\n      dup13\n        /* \"--CODEGEN--\":12686:12690   */\n      dup9\n        /* \"--CODEGEN--\":735:765   */\n      dup6\n      add\n        /* \"--CODEGEN--\":1775:1824   */\n      tag_107\n      jump\t// in\n    tag_121:\n        /* \"--CODEGEN--\":1750:1825   */\n      dup2\n      mstore\n        /* \"--CODEGEN--\":1903:1921   */\n      swap1\n      dup3\n      add\n        /* \"--CODEGEN--\":1890:1922   */\n      calldataload\n      swap1\n        /* \"--CODEGEN--\":1931:1961   */\n      dup8\n      dup3\n      gt\n        /* \"--CODEGEN--\":1928:1930   */\n      iszero\n      tag_122\n      jumpi\n        /* \"--CODEGEN--\":667:668   */\n      0x00\n      dup1\n        /* \"--CODEGEN--\":1964:1976   */\n      revert\n        /* \"--CODEGEN--\":1928:1930   */\n    tag_122:\n        /* \"--CODEGEN--\":2009:2067   */\n      tag_123\n        /* \"--CODEGEN--\":2063:2066   */\n      dup13\n        /* \"--CODEGEN--\":12686:12690   */\n      dup9\n        /* \"--CODEGEN--\":2054:2060   */\n      dup5\n        /* \"--CODEGEN--\":735:765   */\n      dup7\n        /* \"--CODEGEN--\":2039:2061   */\n      add\n      add\n        /* \"--CODEGEN--\":2009:2067   */\n      tag_124\n      jump\t// in\n    tag_123:\n        /* \"--CODEGEN--\":1991:2007   */\n      dup2\n      dup9\n      add\n        /* \"--CODEGEN--\":1984:2068   */\n      mstore\n        /* \"--CODEGEN--\":772:841   */\n      dup6\n      mstore\n      pop\n      pop\n        /* \"--CODEGEN--\":855:869   */\n      swap2\n      dup4\n      add\n      swap2\n        /* \"--CODEGEN--\":883:897   */\n      swap1\n      dup4\n      add\n      swap1\n        /* \"--CODEGEN--\":699:700   */\n      0x01\n        /* \"--CODEGEN--\":692:701   */\n      add\n        /* \"--CODEGEN--\":652:904   */\n      jump(tag_116)\n    tag_118:\n        /* \"--CODEGEN--\":656:670   */\n      pop\n      pop\n      pop\n      pop\n      pop\n      pop\n        /* \"--CODEGEN--\":271:910   */\n      swap3\n      swap2\n      pop\n      pop\n      jump\t// out\n        /* \"--CODEGEN--\":1050:1490   */\n    tag_124:\n      0x00\n        /* \"--CODEGEN--\":1151:1154   */\n      dup3\n        /* \"--CODEGEN--\":1144:1148   */\n      0x1f\n        /* \"--CODEGEN--\":1136:1142   */\n      dup4\n        /* \"--CODEGEN--\":1132:1149   */\n      add\n        /* \"--CODEGEN--\":1128:1155   */\n      slt\n        /* \"--CODEGEN--\":1118:1120   */\n      tag_126\n      jumpi\n      dup1\n      dup2\n        /* \"--CODEGEN--\":1159:1171   */\n      revert\n        /* \"--CODEGEN--\":1118:1120   */\n    tag_126:\n        /* \"--CODEGEN--\":1206:1212   */\n      dup2\n        /* \"--CODEGEN--\":1193:1213   */\n      calldataload\n        /* \"--CODEGEN--\":12914:12932   */\n      0xffffffffffffffff\n        /* \"--CODEGEN--\":12906:12912   */\n      dup2\n        /* \"--CODEGEN--\":12903:12933   */\n      gt\n        /* \"--CODEGEN--\":12900:12902   */\n      iszero\n      tag_127\n      jumpi\n      dup2\n      dup3\n        /* \"--CODEGEN--\":12936:12948   */\n      revert\n        /* \"--CODEGEN--\":12900:12902   */\n    tag_127:\n        /* \"--CODEGEN--\":1228:1292   */\n      tag_128\n        /* \"--CODEGEN--\":1614:1633   */\n      0x1f\n        /* \"--CODEGEN--\":12990:13007   */\n      dup3\n      add\n      not(0x1f)\n        /* \"--CODEGEN--\":12986:13019   */\n      and\n        /* \"--CODEGEN--\":13077:13081   */\n      0x20\n        /* \"--CODEGEN--\":13067:13082   */\n      add\n        /* \"--CODEGEN--\":1228:1292   */\n      tag_115\n      jump\t// in\n    tag_128:\n        /* \"--CODEGEN--\":1219:1292   */\n      swap2\n      pop\n        /* \"--CODEGEN--\":1312:1318   */\n      dup1\n        /* \"--CODEGEN--\":1305:1310   */\n      dup3\n        /* \"--CODEGEN--\":1298:1319   */\n      mstore\n        /* \"--CODEGEN--\":1416:1419   */\n      dup4\n        /* \"--CODEGEN--\":13077:13081   */\n      0x20\n        /* \"--CODEGEN--\":1407:1413   */\n      dup3\n        /* \"--CODEGEN--\":1340:1346   */\n      dup6\n        /* \"--CODEGEN--\":1398:1414   */\n      add\n      add\n        /* \"--CODEGEN--\":1395:1420   */\n      gt\n        /* \"--CODEGEN--\":1392:1394   */\n      iszero\n      tag_129\n      jumpi\n        /* \"--CODEGEN--\":1433:1434   */\n      0x00\n      dup1\n        /* \"--CODEGEN--\":1423:1435   */\n      revert\n        /* \"--CODEGEN--\":1392:1394   */\n    tag_129:\n        /* \"--CODEGEN--\":15603:15609   */\n      dup1\n        /* \"--CODEGEN--\":13077:13081   */\n      0x20\n        /* \"--CODEGEN--\":1340:1346   */\n      dup5\n        /* \"--CODEGEN--\":1336:1353   */\n      add\n        /* \"--CODEGEN--\":13077:13081   */\n      0x20\n        /* \"--CODEGEN--\":1374:1379   */\n      dup5\n        /* \"--CODEGEN--\":1370:1386   */\n      add\n        /* \"--CODEGEN--\":15580:15610   */\n      calldatacopy\n        /* \"--CODEGEN--\":15659:15660   */\n      0x00\n        /* \"--CODEGEN--\":15641:15657   */\n      swap1\n      dup3\n      add\n        /* \"--CODEGEN--\":13077:13081   */\n      0x20\n        /* \"--CODEGEN--\":15641:15657   */\n      add\n        /* \"--CODEGEN--\":15634:15661   */\n      mstore\n        /* \"--CODEGEN--\":1374:1379   */\n      swap3\n        /* \"--CODEGEN--\":1111:1490   */\n      swap2\n      pop\n      pop\n      jump\t// out\n        /* \"--CODEGEN--\":2233:2474   */\n    tag_36:\n      0x00\n        /* \"--CODEGEN--\":2337:2339   */\n      0x20\n        /* \"--CODEGEN--\":2325:2334   */\n      dup3\n        /* \"--CODEGEN--\":2316:2323   */\n      dup5\n        /* \"--CODEGEN--\":2312:2335   */\n      sub\n        /* \"--CODEGEN--\":2308:2340   */\n      slt\n        /* \"--CODEGEN--\":2305:2307   */\n      iszero\n      tag_131\n      jumpi\n      dup1\n      dup2\n        /* \"--CODEGEN--\":2343:2355   */\n      revert\n        /* \"--CODEGEN--\":2305:2307   */\n    tag_131:\n        /* \"--CODEGEN--\":2405:2458   */\n      tag_132\n        /* \"--CODEGEN--\":2450:2457   */\n      dup4\n        /* \"--CODEGEN--\":2426:2448   */\n      dup4\n        /* \"--CODEGEN--\":2405:2458   */\n      tag_107\n      jump\t// in\n    tag_132:\n        /* \"--CODEGEN--\":2395:2458   */\n      swap4\n        /* \"--CODEGEN--\":2299:2474   */\n      swap3\n      pop\n      pop\n      pop\n      jump\t// out\n        /* \"--CODEGEN--\":2481:2896   */\n    tag_20:\n      0x00\n        /* \"--CODEGEN--\":2629:2631   */\n      0x20\n        /* \"--CODEGEN--\":2617:2626   */\n      dup3\n        /* \"--CODEGEN--\":2608:2615   */\n      dup5\n        /* \"--CODEGEN--\":2604:2627   */\n      sub\n        /* \"--CODEGEN--\":2600:2632   */\n      slt\n        /* \"--CODEGEN--\":2597:2599   */\n      iszero\n      tag_134\n      jumpi\n      dup1\n      dup2\n        /* \"--CODEGEN--\":2635:2647   */\n      revert\n        /* \"--CODEGEN--\":2597:2599   */\n    tag_134:\n        /* \"--CODEGEN--\":2693:2710   */\n      dup2\n        /* \"--CODEGEN--\":2680:2711   */\n      calldataload\n        /* \"--CODEGEN--\":2731:2749   */\n      0xffffffffffffffff\n        /* \"--CODEGEN--\":2723:2729   */\n      dup2\n        /* \"--CODEGEN--\":2720:2750   */\n      gt\n        /* \"--CODEGEN--\":2717:2719   */\n      iszero\n      tag_135\n      jumpi\n      dup2\n      dup3\n        /* \"--CODEGEN--\":2753:2765   */\n      revert\n        /* \"--CODEGEN--\":2717:2719   */\n    tag_135:\n        /* \"--CODEGEN--\":2783:2880   */\n      tag_136\n        /* \"--CODEGEN--\":2872:2879   */\n      dup5\n        /* \"--CODEGEN--\":2863:2869   */\n      dup3\n        /* \"--CODEGEN--\":2852:2861   */\n      dup6\n        /* \"--CODEGEN--\":2848:2870   */\n      add\n        /* \"--CODEGEN--\":2783:2880   */\n      tag_110\n      jump\t// in\n    tag_136:\n        /* \"--CODEGEN--\":2773:2880   */\n      swap5\n        /* \"--CODEGEN--\":2591:2896   */\n      swap4\n      pop\n      pop\n      pop\n      pop\n      jump\t// out\n        /* \"--CODEGEN--\":2903:3437   */\n    tag_30:\n      0x00\n      dup1\n        /* \"--CODEGEN--\":3065:3067   */\n      0x40\n        /* \"--CODEGEN--\":3053:3062   */\n      dup4\n        /* \"--CODEGEN--\":3044:3051   */\n      dup6\n        /* \"--CODEGEN--\":3040:3063   */\n      sub\n        /* \"--CODEGEN--\":3036:3068   */\n      slt\n        /* \"--CODEGEN--\":3033:3035   */\n      iszero\n      tag_138\n      jumpi\n      dup1\n      dup2\n        /* \"--CODEGEN--\":3071:3083   */\n      revert\n        /* \"--CODEGEN--\":3033:3035   */\n    tag_138:\n        /* \"--CODEGEN--\":995:1001   */\n      dup3\n        /* \"--CODEGEN--\":982:1002   */\n      calldataload\n        /* \"--CODEGEN--\":16262:16267   */\n      dup1\n        /* \"--CODEGEN--\":15209:15222   */\n      iszero\n        /* \"--CODEGEN--\":15202:15223   */\n      iszero\n        /* \"--CODEGEN--\":16240:16245   */\n      dup2\n        /* \"--CODEGEN--\":16237:16269   */\n      eq\n        /* \"--CODEGEN--\":16227:16229   */\n      tag_139\n      jumpi\n      dup2\n      dup3\n        /* \"--CODEGEN--\":16273:16285   */\n      revert\n        /* \"--CODEGEN--\":16227:16229   */\n    tag_139:\n        /* \"--CODEGEN--\":3123:3183   */\n      swap2\n      pop\n        /* \"--CODEGEN--\":3248:3250   */\n      0x20\n        /* \"--CODEGEN--\":3233:3251   */\n      dup4\n      add\n        /* \"--CODEGEN--\":3220:3252   */\n      calldataload\n        /* \"--CODEGEN--\":3272:3290   */\n      0xffffffffffffffff\n        /* \"--CODEGEN--\":3261:3291   */\n      dup2\n      gt\n        /* \"--CODEGEN--\":3258:3260   */\n      iszero\n      tag_140\n      jumpi\n      dup2\n      dup3\n        /* \"--CODEGEN--\":3294:3306   */\n      revert\n        /* \"--CODEGEN--\":3258:3260   */\n    tag_140:\n        /* \"--CODEGEN--\":3324:3421   */\n      tag_141\n        /* \"--CODEGEN--\":3413:3420   */\n      dup6\n        /* \"--CODEGEN--\":3404:3410   */\n      dup3\n        /* \"--CODEGEN--\":3393:3402   */\n      dup7\n        /* \"--CODEGEN--\":3389:3411   */\n      add\n        /* \"--CODEGEN--\":3324:3421   */\n      tag_110\n      jump\t// in\n    tag_141:\n        /* \"--CODEGEN--\":3314:3421   */\n      swap2\n      pop\n      pop\n        /* \"--CODEGEN--\":3027:3437   */\n      swap3\n      pop\n      swap3\n      swap1\n      pop\n      jump\t// out\n        /* \"--CODEGEN--\":3444:3685   */\n    tag_56:\n      0x00\n        /* \"--CODEGEN--\":3548:3550   */\n      0x20\n        /* \"--CODEGEN--\":3536:3545   */\n      dup3\n        /* \"--CODEGEN--\":3527:3534   */\n      dup5\n        /* \"--CODEGEN--\":3523:3546   */\n      sub\n        /* \"--CODEGEN--\":3519:3551   */\n      slt\n        /* \"--CODEGEN--\":3516:3518   */\n      iszero\n      tag_143\n      jumpi\n      dup1\n      dup2\n        /* \"--CODEGEN--\":3554:3566   */\n      revert\n        /* \"--CODEGEN--\":3516:3518   */\n    tag_143:\n      pop\n        /* \"--CODEGEN--\":2163:2183   */\n      calldataload\n      swap2\n        /* \"--CODEGEN--\":3510:3685   */\n      swap1\n      pop\n      jump\t// out\n        /* \"--CODEGEN--\":5280:6304   */\n    tag_144:\n      0x00\n        /* \"--CODEGEN--\":5539:5544   */\n      dup2\n        /* \"--CODEGEN--\":13558:13570   */\n      mload\n        /* \"--CODEGEN--\":14294:14300   */\n      dup1\n        /* \"--CODEGEN--\":14289:14292   */\n      dup5\n        /* \"--CODEGEN--\":14282:14301   */\n      mstore\n        /* \"--CODEGEN--\":14331:14335   */\n      0x20\n      dup1\n        /* \"--CODEGEN--\":14326:14329   */\n      dup6\n        /* \"--CODEGEN--\":14322:14336   */\n      add\n        /* \"--CODEGEN--\":5551:5666   */\n      dup1\n      dup2\n      swap7\n      pop\n        /* \"--CODEGEN--\":14331:14335   */\n      dup3\n        /* \"--CODEGEN--\":5723:5729   */\n      dup5\n        /* \"--CODEGEN--\":5719:5736   */\n      mul\n        /* \"--CODEGEN--\":5714:5717   */\n      dup2\n        /* \"--CODEGEN--\":5710:5737   */\n      add\n        /* \"--CODEGEN--\":5698:5737   */\n      swap2\n      pop\n        /* \"--CODEGEN--\":14331:14335   */\n      dup3\n        /* \"--CODEGEN--\":5830:5835   */\n      dup7\n        /* \"--CODEGEN--\":13223:13237   */\n      add\n      dup6\n        /* \"--CODEGEN--\":5869:6265   */\n    tag_146:\n        /* \"--CODEGEN--\":5894:5900   */\n      dup6\n        /* \"--CODEGEN--\":5891:5892   */\n      dup2\n        /* \"--CODEGEN--\":5888:5901   */\n      lt\n        /* \"--CODEGEN--\":5869:6265   */\n      iszero\n      tag_148\n      jumpi\n        /* \"--CODEGEN--\":5946:5966   */\n      dup3\n      dup5\n      sub\n        /* \"--CODEGEN--\":5934:5967   */\n      dup10\n      mstore\n        /* \"--CODEGEN--\":5995:6008   */\n      dup2\n      mload\n        /* \"--CODEGEN--\":8212:8235   */\n      dup1\n      mload\n        /* \"--CODEGEN--\":15209:15222   */\n      iszero\n        /* \"--CODEGEN--\":15202:15223   */\n      iszero\n        /* \"--CODEGEN--\":6367:6401   */\n      dup6\n      mstore\n        /* \"--CODEGEN--\":8372:8388   */\n      dup6\n      add\n        /* \"--CODEGEN--\":8366:8389   */\n      mload\n        /* \"--CODEGEN--\":8143:8147   */\n      0x40\n        /* \"--CODEGEN--\":8409:8423   */\n      dup7\n      dup7\n      add\n        /* \"--CODEGEN--\":8402:8440   */\n      dup2\n      swap1\n      mstore\n        /* \"--CODEGEN--\":8455:8526   */\n      tag_149\n        /* \"--CODEGEN--\":8134:8148   */\n      dup2\n      dup8\n      add\n        /* \"--CODEGEN--\":8366:8389   */\n      dup4\n        /* \"--CODEGEN--\":8455:8526   */\n      tag_150\n      jump\t// in\n    tag_149:\n        /* \"--CODEGEN--\":6244:6258   */\n      swap11\n      dup8\n      add\n      swap11\n        /* \"--CODEGEN--\":6015:6131   */\n      swap6\n      pop\n      pop\n      pop\n        /* \"--CODEGEN--\":13991:14005   */\n      swap1\n      dup5\n      add\n      swap1\n        /* \"--CODEGEN--\":5916:5917   */\n      0x01\n        /* \"--CODEGEN--\":5909:5918   */\n      add\n        /* \"--CODEGEN--\":5869:6265   */\n      jump(tag_146)\n    tag_148:\n      pop\n        /* \"--CODEGEN--\":6288:6298   */\n      swap2\n      swap8\n        /* \"--CODEGEN--\":5448:6304   */\n      swap7\n      pop\n      pop\n      pop\n      pop\n      pop\n      pop\n      pop\n      jump\t// out\n        /* \"--CODEGEN--\":6533:6856   */\n    tag_150:\n      0x00\n        /* \"--CODEGEN--\":6665:6670   */\n      dup2\n        /* \"--CODEGEN--\":13558:13570   */\n      mload\n        /* \"--CODEGEN--\":14294:14300   */\n      dup1\n        /* \"--CODEGEN--\":14289:14292   */\n      dup5\n        /* \"--CODEGEN--\":14282:14301   */\n      mstore\n        /* \"--CODEGEN--\":6748:6800   */\n      tag_152\n        /* \"--CODEGEN--\":6793:6799   */\n      dup2\n        /* \"--CODEGEN--\":14331:14335   */\n      0x20\n        /* \"--CODEGEN--\":14326:14329   */\n      dup7\n        /* \"--CODEGEN--\":14322:14336   */\n      add\n        /* \"--CODEGEN--\":14331:14335   */\n      0x20\n        /* \"--CODEGEN--\":6774:6779   */\n      dup7\n        /* \"--CODEGEN--\":6770:6786   */\n      add\n        /* \"--CODEGEN--\":6748:6800   */\n      tag_153\n      jump\t// in\n    tag_152:\n        /* \"--CODEGEN--\":1614:1633   */\n      0x1f\n        /* \"--CODEGEN--\":16020:16034   */\n      add\n      not(0x1f)\n        /* \"--CODEGEN--\":16016:16044   */\n      and\n        /* \"--CODEGEN--\":6812:6851   */\n      swap3\n      swap1\n      swap3\n      add\n        /* \"--CODEGEN--\":14331:14335   */\n      0x20\n        /* \"--CODEGEN--\":6812:6851   */\n      add\n      swap3\n        /* \"--CODEGEN--\":6613:6856   */\n      swap2\n      pop\n      pop\n      jump\t// out\n        /* \"--CODEGEN--\":8691:8962   */\n    tag_70:\n      0x00\n        /* \"--CODEGEN--\":7023:7028   */\n      dup3\n        /* \"--CODEGEN--\":13558:13570   */\n      mload\n        /* \"--CODEGEN--\":7134:7186   */\n      tag_155\n        /* \"--CODEGEN--\":7179:7185   */\n      dup2\n        /* \"--CODEGEN--\":7174:7177   */\n      dup5\n        /* \"--CODEGEN--\":7167:7171   */\n      0x20\n        /* \"--CODEGEN--\":7160:7165   */\n      dup8\n        /* \"--CODEGEN--\":7156:7172   */\n      add\n        /* \"--CODEGEN--\":7134:7186   */\n      tag_153\n      jump\t// in\n    tag_155:\n        /* \"--CODEGEN--\":7198:7214   */\n      swap2\n      swap1\n      swap2\n      add\n      swap3\n        /* \"--CODEGEN--\":8825:8962   */\n      swap2\n      pop\n      pop\n      jump\t// out\n        /* \"--CODEGEN--\":8969:9191   */\n    tag_48:\n      sub(shl(0xa0, 0x01), 0x01)\n        /* \"--CODEGEN--\":15376:15430   */\n      swap2\n      swap1\n      swap2\n      and\n        /* \"--CODEGEN--\":4211:4248   */\n      dup2\n      mstore\n        /* \"--CODEGEN--\":9096:9098   */\n      0x20\n        /* \"--CODEGEN--\":9081:9099   */\n      add\n      swap1\n        /* \"--CODEGEN--\":9067:9191   */\n      jump\t// out\n        /* \"--CODEGEN--\":9198:9656   */\n    tag_53:\n      0x00\n        /* \"--CODEGEN--\":9419:9421   */\n      0x20\n        /* \"--CODEGEN--\":9440:9457   */\n      dup3\n        /* \"--CODEGEN--\":9433:9480   */\n      mstore\n        /* \"--CODEGEN--\":9494:9646   */\n      tag_132\n        /* \"--CODEGEN--\":9419:9421   */\n      0x20\n        /* \"--CODEGEN--\":9408:9417   */\n      dup4\n        /* \"--CODEGEN--\":9404:9422   */\n      add\n        /* \"--CODEGEN--\":9632:9638   */\n      dup5\n        /* \"--CODEGEN--\":9494:9646   */\n      tag_144\n      jump\t// in\n        /* \"--CODEGEN--\":9663:9885   */\n    tag_27:\n        /* \"--CODEGEN--\":6484:6521   */\n      swap1\n      dup2\n      mstore\n        /* \"--CODEGEN--\":9790:9792   */\n      0x20\n        /* \"--CODEGEN--\":9775:9793   */\n      add\n      swap1\n        /* \"--CODEGEN--\":9761:9885   */\n      jump\t// out\n        /* \"--CODEGEN--\":9892:10308   */\n    tag_76:\n        /* \"--CODEGEN--\":10092:10094   */\n      0x20\n        /* \"--CODEGEN--\":10106:10153   */\n      dup1\n      dup3\n      mstore\n        /* \"--CODEGEN--\":10077:10095   */\n      dup2\n      dup2\n      add\n        /* \"--CODEGEN--\":14282:14301   */\n      mstore\n        /* \"--CODEGEN--\":7487:7521   */\n      0x4d756c746963616c6c206167677265676174653a2063616c6c206661696c6564\n        /* \"--CODEGEN--\":14322:14336   */\n      0x40\n      dup3\n      add\n        /* \"--CODEGEN--\":7467:7522   */\n      mstore\n        /* \"--CODEGEN--\":7541:7553   */\n      0x60\n      add\n      swap1\n        /* \"--CODEGEN--\":10063:10308   */\n      jump\t// out\n        /* \"--CODEGEN--\":10315:10731   */\n    tag_103:\n        /* \"--CODEGEN--\":10515:10517   */\n      0x20\n        /* \"--CODEGEN--\":10529:10576   */\n      dup1\n      dup3\n      mstore\n        /* \"--CODEGEN--\":7792:7794   */\n      0x24\n        /* \"--CODEGEN--\":10500:10518   */\n      swap1\n      dup3\n      add\n        /* \"--CODEGEN--\":14282:14301   */\n      mstore\n        /* \"--CODEGEN--\":7828:7862   */\n      0x4d756c746963616c6c32207472794167677265676174653a2063616c6c206661\n        /* \"--CODEGEN--\":14322:14336   */\n      0x40\n      dup3\n      add\n        /* \"--CODEGEN--\":7808:7863   */\n      mstore\n      shl(0xe2, 0x1a5b1959)\n        /* \"--CODEGEN--\":7883:7895   */\n      0x60\n      dup3\n      add\n        /* \"--CODEGEN--\":7876:7904   */\n      mstore\n        /* \"--CODEGEN--\":7923:7935   */\n      0x80\n      add\n      swap1\n        /* \"--CODEGEN--\":10486:10731   */\n      jump\t// out\n        /* \"--CODEGEN--\":10967:11484   */\n    tag_23:\n      0x00\n        /* \"--CODEGEN--\":11190:11192   */\n      0x40\n        /* \"--CODEGEN--\":11179:11188   */\n      dup3\n        /* \"--CODEGEN--\":11175:11193   */\n      add\n        /* \"--CODEGEN--\":6514:6519   */\n      dup5\n        /* \"--CODEGEN--\":6491:6494   */\n      dup4\n        /* \"--CODEGEN--\":6484:6521   */\n      mstore\n        /* \"--CODEGEN--\":11308:11310   */\n      0x20\n        /* \"--CODEGEN--\":11190:11192   */\n      0x40\n        /* \"--CODEGEN--\":11308:11310   */\n      dup2\n        /* \"--CODEGEN--\":11297:11306   */\n      dup6\n        /* \"--CODEGEN--\":11293:11311   */\n      add\n        /* \"--CODEGEN--\":11286:11334   */\n      mstore\n        /* \"--CODEGEN--\":11348:11474   */\n      dup2\n        /* \"--CODEGEN--\":4507:4512   */\n      dup6\n        /* \"--CODEGEN--\":13558:13570   */\n      mload\n        /* \"--CODEGEN--\":14294:14300   */\n      dup1\n        /* \"--CODEGEN--\":14289:14292   */\n      dup5\n        /* \"--CODEGEN--\":14282:14301   */\n      mstore\n        /* \"--CODEGEN--\":14322:14336   */\n      0x60\n        /* \"--CODEGEN--\":11179:11188   */\n      dup7\n        /* \"--CODEGEN--\":14322:14336   */\n      add\n        /* \"--CODEGEN--\":4519:4621   */\n      swap2\n      pop\n        /* \"--CODEGEN--\":14322:14336   */\n      0x60\n        /* \"--CODEGEN--\":11308:11310   */\n      dup4\n        /* \"--CODEGEN--\":4678:4684   */\n      dup3\n        /* \"--CODEGEN--\":4674:4691   */\n      mul\n        /* \"--CODEGEN--\":11179:11188   */\n      dup8\n        /* \"--CODEGEN--\":4665:4692   */\n      add\n      add\n        /* \"--CODEGEN--\":4653:4692   */\n      swap4\n      pop\n        /* \"--CODEGEN--\":11308:11310   */\n      dup3\n        /* \"--CODEGEN--\":4772:4777   */\n      dup8\n        /* \"--CODEGEN--\":13223:13237   */\n      add\n      dup6\n        /* \"--CODEGEN--\":4811:5168   */\n    tag_164:\n        /* \"--CODEGEN--\":4836:4842   */\n      dup3\n        /* \"--CODEGEN--\":4833:4834   */\n      dup2\n        /* \"--CODEGEN--\":4830:4843   */\n      lt\n        /* \"--CODEGEN--\":4811:5168   */\n      iszero\n      tag_166\n      jumpi\n        /* \"--CODEGEN--\":4888:4908   */\n      not(0x5f)\n        /* \"--CODEGEN--\":11179:11188   */\n      dup9\n        /* \"--CODEGEN--\":4892:4896   */\n      dup8\n        /* \"--CODEGEN--\":4888:4908   */\n      sub\n      add\n        /* \"--CODEGEN--\":4883:4886   */\n      dup5\n        /* \"--CODEGEN--\":4876:4909   */\n      mstore\n        /* \"--CODEGEN--\":3812:3876   */\n      tag_167\n        /* \"--CODEGEN--\":3872:3875   */\n      dup7\n        /* \"--CODEGEN--\":4943:4949   */\n      dup4\n        /* \"--CODEGEN--\":4937:4950   */\n      mload\n        /* \"--CODEGEN--\":3812:3876   */\n      tag_150\n      jump\t// in\n    tag_167:\n        /* \"--CODEGEN--\":4957:5047   */\n      swap6\n      pop\n        /* \"--CODEGEN--\":5147:5161   */\n      swap3\n      dup5\n      add\n      swap3\n        /* \"--CODEGEN--\":13991:14005   */\n      swap1\n      dup5\n      add\n      swap1\n        /* \"--CODEGEN--\":4858:4859   */\n      0x01\n        /* \"--CODEGEN--\":4851:4860   */\n      add\n        /* \"--CODEGEN--\":4811:5168   */\n      jump(tag_164)\n    tag_166:\n      pop\n        /* \"--CODEGEN--\":11340:11474   */\n      swap4\n      swap9\n        /* \"--CODEGEN--\":11161:11484   */\n      swap8\n      pop\n      pop\n      pop\n      pop\n      pop\n      pop\n      pop\n      pop\n      jump\t// out\n        /* \"--CODEGEN--\":11491:12171   */\n    tag_33:\n      0x00\n        /* \"--CODEGEN--\":6514:6519   */\n      dup5\n        /* \"--CODEGEN--\":6491:6494   */\n      dup3\n        /* \"--CODEGEN--\":6484:6521   */\n      mstore\n        /* \"--CODEGEN--\":6514:6519   */\n      dup4\n        /* \"--CODEGEN--\":11932:11934   */\n      0x20\n        /* \"--CODEGEN--\":11921:11930   */\n      dup4\n        /* \"--CODEGEN--\":11917:11935   */\n      add\n        /* \"--CODEGEN--\":6484:6521   */\n      mstore\n        /* \"--CODEGEN--\":11768:11770   */\n      0x60\n        /* \"--CODEGEN--\":11969:11971   */\n      0x40\n        /* \"--CODEGEN--\":11958:11967   */\n      dup4\n        /* \"--CODEGEN--\":11954:11972   */\n      add\n        /* \"--CODEGEN--\":11947:11995   */\n      mstore\n        /* \"--CODEGEN--\":12009:12161   */\n      tag_169\n        /* \"--CODEGEN--\":11768:11770   */\n      0x60\n        /* \"--CODEGEN--\":11757:11766   */\n      dup4\n        /* \"--CODEGEN--\":11753:11771   */\n      add\n        /* \"--CODEGEN--\":12147:12153   */\n      dup5\n        /* \"--CODEGEN--\":12009:12161   */\n      tag_144\n      jump\t// in\n    tag_169:\n        /* \"--CODEGEN--\":12001:12161   */\n      swap6\n        /* \"--CODEGEN--\":11739:12171   */\n      swap5\n      pop\n      pop\n      pop\n      pop\n      pop\n      jump\t// out\n        /* \"--CODEGEN--\":12178:12434   */\n    tag_115:\n        /* \"--CODEGEN--\":12240:12242   */\n      0x40\n        /* \"--CODEGEN--\":12234:12243   */\n      mload\n        /* \"--CODEGEN--\":12266:12283   */\n      dup2\n      dup2\n      add\n        /* \"--CODEGEN--\":12341:12359   */\n      0xffffffffffffffff\n        /* \"--CODEGEN--\":12326:12360   */\n      dup2\n      gt\n        /* \"--CODEGEN--\":12362:12384   */\n      dup3\n      dup3\n      lt\n        /* \"--CODEGEN--\":12323:12385   */\n      or\n        /* \"--CODEGEN--\":12320:12322   */\n      iszero\n      tag_171\n      jumpi\n        /* \"--CODEGEN--\":12398:12399   */\n      0x00\n      dup1\n        /* \"--CODEGEN--\":12388:12400   */\n      revert\n        /* \"--CODEGEN--\":12320:12322   */\n    tag_171:\n        /* \"--CODEGEN--\":12240:12242   */\n      0x40\n        /* \"--CODEGEN--\":12407:12429   */\n      mstore\n        /* \"--CODEGEN--\":12218:12434   */\n      swap2\n      swap1\n      pop\n      jump\t// out\n        /* \"--CODEGEN--\":15676:15944   */\n    tag_153:\n        /* \"--CODEGEN--\":15741:15742   */\n      0x00\n        /* \"--CODEGEN--\":15748:15849   */\n    tag_173:\n        /* \"--CODEGEN--\":15762:15768   */\n      dup4\n        /* \"--CODEGEN--\":15759:15760   */\n      dup2\n        /* \"--CODEGEN--\":15756:15769   */\n      lt\n        /* \"--CODEGEN--\":15748:15849   */\n      iszero\n      tag_175\n      jumpi\n        /* \"--CODEGEN--\":15829:15840   */\n      dup2\n      dup2\n      add\n        /* \"--CODEGEN--\":15823:15841   */\n      mload\n        /* \"--CODEGEN--\":15810:15821   */\n      dup4\n      dup3\n      add\n        /* \"--CODEGEN--\":15803:15842   */\n      mstore\n        /* \"--CODEGEN--\":15784:15786   */\n      0x20\n        /* \"--CODEGEN--\":15777:15787   */\n      add\n        /* \"--CODEGEN--\":15748:15849   */\n      jump(tag_173)\n    tag_175:\n        /* \"--CODEGEN--\":15864:15870   */\n      dup4\n        /* \"--CODEGEN--\":15861:15862   */\n      dup2\n        /* \"--CODEGEN--\":15858:15871   */\n      gt\n        /* \"--CODEGEN--\":15855:15857   */\n      iszero\n      tag_176\n      jumpi\n        /* \"--CODEGEN--\":15741:15742   */\n      0x00\n        /* \"--CODEGEN--\":15920:15926   */\n      dup5\n        /* \"--CODEGEN--\":15915:15918   */\n      dup5\n        /* \"--CODEGEN--\":15911:15927   */\n      add\n        /* \"--CODEGEN--\":15904:15931   */\n      mstore\n        /* \"--CODEGEN--\":15855:15857   */\n    tag_176:\n      pop\n        /* \"--CODEGEN--\":15725:15944   */\n      pop\n      pop\n      pop\n      jump\t// out\n\n    auxdata: 0xa26469706673582212206283cfa0c139e567e5cc2cdd892b9a546e60ad5ac2ba6b13079e467a5f3f00a564736f6c634300060c0033\n}\n",
				"bytecode": {
					"linkReferences": {},
					"object": "608060405234801561001057600080fd5b506108ea806100206000396000f3fe608060405234801561001057600080fd5b506004361061009e5760003560e01c806372425d9d1161006657806372425d9d1461011f57806386d516e814610127578063a8b0574e1461012f578063bce38bd714610144578063ee82ac5e146101645761009e565b80630f28c97d146100a3578063252dba42146100c157806327e86d6e146100e2578063399542e9146100ea5780634d2301cc1461010c575b600080fd5b6100ab610177565b6040516100b8919061074b565b60405180910390f35b6100d46100cf3660046105ce565b61017b565b6040516100b89291906107cd565b6100ab6102ba565b6100fd6100f8366004610609565b6102c3565b6040516100b893929190610835565b6100ab61011a3660046105ac565b6102db565b6100ab6102e8565b6100ab6102ec565b6101376102f0565b6040516100b89190610724565b610157610152366004610609565b6102f4565b6040516100b89190610738565b6100ab61017236600461065b565b61044a565b4290565b8051439060609067ffffffffffffffff8111801561019857600080fd5b506040519080825280602002602001820160405280156101cc57816020015b60608152602001906001900390816101b75790505b50905060005b83518110156102b457600060608583815181106101eb57fe5b6020026020010151600001516001600160a01b031686848151811061020c57fe5b6020026020010151602001516040516102259190610708565b6000604051808303816000865af19150503d8060008114610262576040519150601f19603f3d011682016040523d82523d6000602084013e610267565b606091505b5091509150816102925760405162461bcd60e51b815260040161028990610754565b60405180910390fd5b8084848151811061029f57fe5b602090810291909101015250506001016101d2565b50915091565b60001943014090565b43804060606102d285856102f4565b90509250925092565b6001600160a01b03163190565b4490565b4590565b4190565b6060815167ffffffffffffffff8111801561030e57600080fd5b5060405190808252806020026020018201604052801561034857816020015b61033561044e565b81526020019060019003908161032d5790505b50905060005b8251811015610443576000606084838151811061036757fe5b6020026020010151600001516001600160a01b031685848151811061038857fe5b6020026020010151602001516040516103a19190610708565b6000604051808303816000865af19150503d80600081146103de576040519150601f19603f3d011682016040523d82523d6000602084013e6103e3565b606091505b5091509150851561040b578161040b5760405162461bcd60e51b815260040161028990610789565b604051806040016040528083151581526020018281525084848151811061042e57fe5b6020908102919091010152505060010161034e565b5092915050565b4090565b60408051808201909152600081526060602082015290565b80356001600160a01b038116811461047d57600080fd5b92915050565b600082601f830112610493578081fd5b813567ffffffffffffffff808211156104aa578283fd5b60206104b9818285020161085d565b838152935080840185820160005b858110156105375781358801604080601f19838d030112156104e857600080fd5b6104f18161085d565b6104fd8c888501610466565b815290820135908782111561051157600080fd5b61051f8c8884860101610543565b818801528552505091830191908301906001016104c7565b50505050505092915050565b600082601f830112610553578081fd5b813567ffffffffffffffff811115610569578182fd5b61057c601f8201601f191660200161085d565b915080825283602082850101111561059357600080fd5b8060208401602084013760009082016020015292915050565b6000602082840312156105bd578081fd5b6105c78383610466565b9392505050565b6000602082840312156105df578081fd5b813567ffffffffffffffff8111156105f5578182fd5b61060184828501610483565b949350505050565b6000806040838503121561061b578081fd5b8235801515811461062a578182fd5b9150602083013567ffffffffffffffff811115610645578182fd5b61065185828601610483565b9150509250929050565b60006020828403121561066c578081fd5b5035919050565b6000815180845260208085018081965082840281019150828601855b858110156106cf578284038952815180511515855285015160408686018190526106bb818701836106dc565b9a87019a955050509084019060010161068f565b5091979650505050505050565b600081518084526106f4816020860160208601610884565b601f01601f19169290920160200192915050565b6000825161071a818460208701610884565b9190910192915050565b6001600160a01b0391909116815260200190565b6000602082526105c76020830184610673565b90815260200190565b6020808252818101527f4d756c746963616c6c206167677265676174653a2063616c6c206661696c6564604082015260600190565b60208082526024908201527f4d756c746963616c6c32207472794167677265676174653a2063616c6c2066616040820152631a5b195960e21b606082015260800190565b600060408201848352602060408185015281855180845260608601915060608382028701019350828701855b8281101561082757605f198887030184526108158683516106dc565b955092840192908401906001016107f9565b509398975050505050505050565b6000848252836020830152606060408301526108546060830184610673565b95945050505050565b60405181810167ffffffffffffffff8111828210171561087c57600080fd5b604052919050565b60005b8381101561089f578181015183820152602001610887565b838111156108ae576000848401525b5050505056fea26469706673582212206283cfa0c139e567e5cc2cdd892b9a546e60ad5ac2ba6b13079e467a5f3f00a564736f6c634300060c0033",
					"opcodes": "PUSH1 0x80 PUSH1 0x40 MSTORE CALLVALUE DUP1 ISZERO PUSH2 0x10 JUMPI PUSH1 0x0 DUP1 REVERT JUMPDEST POP PUSH2 0x8EA DUP1 PUSH2 0x20 PUSH1 0x0 CODECOPY PUSH1 0x0 RETURN INVALID PUSH1 0x80 PUSH1 0x40 MSTORE CALLVALUE DUP1 ISZERO PUSH2 0x10 JUMPI PUSH1 0x0 DUP1 REVERT JUMPDEST POP PUSH1 0x4 CALLDATASIZE LT PUSH2 0x9E JUMPI PUSH1 0x0 CALLDATALOAD PUSH1 0xE0 SHR DUP1 PUSH4 0x72425D9D GT PUSH2 0x66 JUMPI DUP1 PUSH4 0x72425D9D EQ PUSH2 0x11F JUMPI DUP1 PUSH4 0x86D516E8 EQ PUSH2 0x127 JUMPI DUP1 PUSH4 0xA8B0574E EQ PUSH2 0x12F JUMPI DUP1 PUSH4 0xBCE38BD7 EQ PUSH2 0x144 JUMPI DUP1 PUSH4 0xEE82AC5E EQ PUSH2 0x164 JUMPI PUSH2 0x9E JUMP JUMPDEST DUP1 PUSH4 0xF28C97D EQ PUSH2 0xA3 JUMPI DUP1 PUSH4 0x252DBA42 EQ PUSH2 0xC1 JUMPI DUP1 PUSH4 0x27E86D6E EQ PUSH2 0xE2 JUMPI DUP1 PUSH4 0x399542E9 EQ PUSH2 0xEA JUMPI DUP1 PUSH4 0x4D2301CC EQ PUSH2 0x10C JUMPI JUMPDEST PUSH1 0x0 DUP1 REVERT JUMPDEST PUSH2 0xAB PUSH2 0x177 JUMP JUMPDEST PUSH1 0x40 MLOAD PUSH2 0xB8 SWAP2 SWAP1 PUSH2 0x74B JUMP JUMPDEST PUSH1 0x40 MLOAD DUP1 SWAP2 SUB SWAP1 RETURN JUMPDEST PUSH2 0xD4 PUSH2 0xCF CALLDATASIZE PUSH1 0x4 PUSH2 0x5CE JUMP JUMPDEST PUSH2 0x17B JUMP JUMPDEST PUSH1 0x40 MLOAD PUSH2 0xB8 SWAP3 SWAP2 SWAP1 PUSH2 0x7CD JUMP JUMPDEST PUSH2 0xAB PUSH2 0x2BA JUMP JUMPDEST PUSH2 0xFD PUSH2 0xF8 CALLDATASIZE PUSH1 0x4 PUSH2 0x609 JUMP JUMPDEST PUSH2 0x2C3 JUMP JUMPDEST PUSH1 0x40 MLOAD PUSH2 0xB8 SWAP4 SWAP3 SWAP2 SWAP1 PUSH2 0x835 JUMP JUMPDEST PUSH2 0xAB PUSH2 0x11A CALLDATASIZE PUSH1 0x4 PUSH2 0x5AC JUMP JUMPDEST PUSH2 0x2DB JUMP JUMPDEST PUSH2 0xAB PUSH2 0x2E8 JUMP JUMPDEST PUSH2 0xAB PUSH2 0x2EC JUMP JUMPDEST PUSH2 0x137 PUSH2 0x2F0 JUMP JUMPDEST PUSH1 0x40 MLOAD PUSH2 0xB8 SWAP2 SWAP1 PUSH2 0x724 JUMP JUMPDEST PUSH2 0x157 PUSH2 0x152 CALLDATASIZE PUSH1 0x4 PUSH2 0x609 JUMP JUMPDEST PUSH2 0x2F4 JUMP JUMPDEST PUSH1 0x40 MLOAD PUSH2 0xB8 SWAP2 SWAP1 PUSH2 0x738 JUMP JUMPDEST PUSH2 0xAB PUSH2 0x172 CALLDATASIZE PUSH1 0x4 PUSH2 0x65B JUMP JUMPDEST PUSH2 0x44A JUMP JUMPDEST TIMESTAMP SWAP1 JUMP JUMPDEST DUP1 MLOAD NUMBER SWAP1 PUSH1 0x60 SWAP1 PUSH8 0xFFFFFFFFFFFFFFFF DUP2 GT DUP1 ISZERO PUSH2 0x198 JUMPI PUSH1 0x0 DUP1 REVERT JUMPDEST POP PUSH1 0x40 MLOAD SWAP1 DUP1 DUP3 MSTORE DUP1 PUSH1 0x20 MUL PUSH1 0x20 ADD DUP3 ADD PUSH1 0x40 MSTORE DUP1 ISZERO PUSH2 0x1CC JUMPI DUP2 PUSH1 0x20 ADD JUMPDEST PUSH1 0x60 DUP2 MSTORE PUSH1 0x20 ADD SWAP1 PUSH1 0x1 SWAP1 SUB SWAP1 DUP2 PUSH2 0x1B7 JUMPI SWAP1 POP JUMPDEST POP SWAP1 POP PUSH1 0x0 JUMPDEST DUP4 MLOAD DUP2 LT ISZERO PUSH2 0x2B4 JUMPI PUSH1 0x0 PUSH1 0x60 DUP6 DUP4 DUP2 MLOAD DUP2 LT PUSH2 0x1EB JUMPI INVALID JUMPDEST PUSH1 0x20 MUL PUSH1 0x20 ADD ADD MLOAD PUSH1 0x0 ADD MLOAD PUSH1 0x1 PUSH1 0x1 PUSH1 0xA0 SHL SUB AND DUP7 DUP5 DUP2 MLOAD DUP2 LT PUSH2 0x20C JUMPI INVALID JUMPDEST PUSH1 0x20 MUL PUSH1 0x20 ADD ADD MLOAD PUSH1 0x20 ADD MLOAD PUSH1 0x40 MLOAD PUSH2 0x225 SWAP2 SWAP1 PUSH2 0x708 JUMP JUMPDEST PUSH1 0x0 PUSH1 0x40 MLOAD DUP1 DUP4 SUB DUP2 PUSH1 0x0 DUP7 GAS CALL SWAP2 POP POP RETURNDATASIZE DUP1 PUSH1 0x0 DUP2 EQ PUSH2 0x262 JUMPI PUSH1 0x40 MLOAD SWAP2 POP PUSH1 0x1F NOT PUSH1 0x3F RETURNDATASIZE ADD AND DUP3 ADD PUSH1 0x40 MSTORE RETURNDATASIZE DUP3 MSTORE RETURNDATASIZE PUSH1 0x0 PUSH1 0x20 DUP5 ADD RETURNDATACOPY PUSH2 0x267 JUMP JUMPDEST PUSH1 0x60 SWAP2 POP JUMPDEST POP SWAP2 POP SWAP2 POP DUP2 PUSH2 0x292 JUMPI PUSH1 0x40 MLOAD PUSH3 0x461BCD PUSH1 0xE5 SHL DUP2 MSTORE PUSH1 0x4 ADD PUSH2 0x289 SWAP1 PUSH2 0x754 JUMP JUMPDEST PUSH1 0x40 MLOAD DUP1 SWAP2 SUB SWAP1 REVERT JUMPDEST DUP1 DUP5 DUP5 DUP2 MLOAD DUP2 LT PUSH2 0x29F JUMPI INVALID JUMPDEST PUSH1 0x20 SWAP1 DUP2 MUL SWAP2 SWAP1 SWAP2 ADD ADD MSTORE POP POP PUSH1 0x1 ADD PUSH2 0x1D2 JUMP JUMPDEST POP SWAP2 POP SWAP2 JUMP JUMPDEST PUSH1 0x0 NOT NUMBER ADD BLOCKHASH SWAP1 JUMP JUMPDEST NUMBER DUP1 BLOCKHASH PUSH1 0x60 PUSH2 0x2D2 DUP6 DUP6 PUSH2 0x2F4 JUMP JUMPDEST SWAP1 POP SWAP3 POP SWAP3 POP SWAP3 JUMP JUMPDEST PUSH1 0x1 PUSH1 0x1 PUSH1 0xA0 SHL SUB AND BALANCE SWAP1 JUMP JUMPDEST DIFFICULTY SWAP1 JUMP JUMPDEST GASLIMIT SWAP1 JUMP JUMPDEST COINBASE SWAP1 JUMP JUMPDEST PUSH1 0x60 DUP2 MLOAD PUSH8 0xFFFFFFFFFFFFFFFF DUP2 GT DUP1 ISZERO PUSH2 0x30E JUMPI PUSH1 0x0 DUP1 REVERT JUMPDEST POP PUSH1 0x40 MLOAD SWAP1 DUP1 DUP3 MSTORE DUP1 PUSH1 0x20 MUL PUSH1 0x20 ADD DUP3 ADD PUSH1 0x40 MSTORE DUP1 ISZERO PUSH2 0x348 JUMPI DUP2 PUSH1 0x20 ADD JUMPDEST PUSH2 0x335 PUSH2 0x44E JUMP JUMPDEST DUP2 MSTORE PUSH1 0x20 ADD SWAP1 PUSH1 0x1 SWAP1 SUB SWAP1 DUP2 PUSH2 0x32D JUMPI SWAP1 POP JUMPDEST POP SWAP1 POP PUSH1 0x0 JUMPDEST DUP3 MLOAD DUP2 LT ISZERO PUSH2 0x443 JUMPI PUSH1 0x0 PUSH1 0x60 DUP5 DUP4 DUP2 MLOAD DUP2 LT PUSH2 0x367 JUMPI INVALID JUMPDEST PUSH1 0x20 MUL PUSH1 0x20 ADD ADD MLOAD PUSH1 0x0 ADD MLOAD PUSH1 0x1 PUSH1 0x1 PUSH1 0xA0 SHL SUB AND DUP6 DUP5 DUP2 MLOAD DUP2 LT PUSH2 0x388 JUMPI INVALID JUMPDEST PUSH1 0x20 MUL PUSH1 0x20 ADD ADD MLOAD PUSH1 0x20 ADD MLOAD PUSH1 0x40 MLOAD PUSH2 0x3A1 SWAP2 SWAP1 PUSH2 0x708 JUMP JUMPDEST PUSH1 0x0 PUSH1 0x40 MLOAD DUP1 DUP4 SUB DUP2 PUSH1 0x0 DUP7 GAS CALL SWAP2 POP POP RETURNDATASIZE DUP1 PUSH1 0x0 DUP2 EQ PUSH2 0x3DE JUMPI PUSH1 0x40 MLOAD SWAP2 POP PUSH1 0x1F NOT PUSH1 0x3F RETURNDATASIZE ADD AND DUP3 ADD PUSH1 0x40 MSTORE RETURNDATASIZE DUP3 MSTORE RETURNDATASIZE PUSH1 0x0 PUSH1 0x20 DUP5 ADD RETURNDATACOPY PUSH2 0x3E3 JUMP JUMPDEST PUSH1 0x60 SWAP2 POP JUMPDEST POP SWAP2 POP SWAP2 POP DUP6 ISZERO PUSH2 0x40B JUMPI DUP2 PUSH2 0x40B JUMPI PUSH1 0x40 MLOAD PUSH3 0x461BCD PUSH1 0xE5 SHL DUP2 MSTORE PUSH1 0x4 ADD PUSH2 0x289 SWAP1 PUSH2 0x789 JUMP JUMPDEST PUSH1 0x40 MLOAD DUP1 PUSH1 0x40 ADD PUSH1 0x40 MSTORE DUP1 DUP4 ISZERO ISZERO DUP2 MSTORE PUSH1 0x20 ADD DUP3 DUP2 MSTORE POP DUP5 DUP5 DUP2 MLOAD DUP2 LT PUSH2 0x42E JUMPI INVALID JUMPDEST PUSH1 0x20 SWAP1 DUP2 MUL SWAP2 SWAP1 SWAP2 ADD ADD MSTORE POP POP PUSH1 0x1 ADD PUSH2 0x34E JUMP JUMPDEST POP SWAP3 SWAP2 POP POP JUMP JUMPDEST BLOCKHASH SWAP1 JUMP JUMPDEST PUSH1 0x40 DUP1 MLOAD DUP1 DUP3 ADD SWAP1 SWAP2 MSTORE PUSH1 0x0 DUP2 MSTORE PUSH1 0x60 PUSH1 0x20 DUP3 ADD MSTORE SWAP1 JUMP JUMPDEST DUP1 CALLDATALOAD PUSH1 0x1 PUSH1 0x1 PUSH1 0xA0 SHL SUB DUP2 AND DUP2 EQ PUSH2 0x47D JUMPI PUSH1 0x0 DUP1 REVERT JUMPDEST SWAP3 SWAP2 POP POP JUMP JUMPDEST PUSH1 0x0 DUP3 PUSH1 0x1F DUP4 ADD SLT PUSH2 0x493 JUMPI DUP1 DUP2 REVERT JUMPDEST DUP2 CALLDATALOAD PUSH8 0xFFFFFFFFFFFFFFFF DUP1 DUP3 GT ISZERO PUSH2 0x4AA JUMPI DUP3 DUP4 REVERT JUMPDEST PUSH1 0x20 PUSH2 0x4B9 DUP2 DUP3 DUP6 MUL ADD PUSH2 0x85D JUMP JUMPDEST DUP4 DUP2 MSTORE SWAP4 POP DUP1 DUP5 ADD DUP6 DUP3 ADD PUSH1 0x0 JUMPDEST DUP6 DUP2 LT ISZERO PUSH2 0x537 JUMPI DUP2 CALLDATALOAD DUP9 ADD PUSH1 0x40 DUP1 PUSH1 0x1F NOT DUP4 DUP14 SUB ADD SLT ISZERO PUSH2 0x4E8 JUMPI PUSH1 0x0 DUP1 REVERT JUMPDEST PUSH2 0x4F1 DUP2 PUSH2 0x85D JUMP JUMPDEST PUSH2 0x4FD DUP13 DUP9 DUP6 ADD PUSH2 0x466 JUMP JUMPDEST DUP2 MSTORE SWAP1 DUP3 ADD CALLDATALOAD SWAP1 DUP8 DUP3 GT ISZERO PUSH2 0x511 JUMPI PUSH1 0x0 DUP1 REVERT JUMPDEST PUSH2 0x51F DUP13 DUP9 DUP5 DUP7 ADD ADD PUSH2 0x543 JUMP JUMPDEST DUP2 DUP9 ADD MSTORE DUP6 MSTORE POP POP SWAP2 DUP4 ADD SWAP2 SWAP1 DUP4 ADD SWAP1 PUSH1 0x1 ADD PUSH2 0x4C7 JUMP JUMPDEST POP POP POP POP POP POP SWAP3 SWAP2 POP POP JUMP JUMPDEST PUSH1 0x0 DUP3 PUSH1 0x1F DUP4 ADD SLT PUSH2 0x553 JUMPI DUP1 DUP2 REVERT JUMPDEST DUP2 CALLDATALOAD PUSH8 0xFFFFFFFFFFFFFFFF DUP2 GT ISZERO PUSH2 0x569 JUMPI DUP2 DUP3 REVERT JUMPDEST PUSH2 0x57C PUSH1 0x1F DUP3 ADD PUSH1 0x1F NOT AND PUSH1 0x20 ADD PUSH2 0x85D JUMP JUMPDEST SWAP2 POP DUP1 DUP3 MSTORE DUP4 PUSH1 0x20 DUP3 DUP6 ADD ADD GT ISZERO PUSH2 0x593 JUMPI PUSH1 0x0 DUP1 REVERT JUMPDEST DUP1 PUSH1 0x20 DUP5 ADD PUSH1 0x20 DUP5 ADD CALLDATACOPY PUSH1 0x0 SWAP1 DUP3 ADD PUSH1 0x20 ADD MSTORE SWAP3 SWAP2 POP POP JUMP JUMPDEST PUSH1 0x0 PUSH1 0x20 DUP3 DUP5 SUB SLT ISZERO PUSH2 0x5BD JUMPI DUP1 DUP2 REVERT JUMPDEST PUSH2 0x5C7 DUP4 DUP4 PUSH2 0x466 JUMP JUMPDEST SWAP4 SWAP3 POP POP POP JUMP JUMPDEST PUSH1 0x0 PUSH1 0x20 DUP3 DUP5 SUB SLT ISZERO PUSH2 0x5DF JUMPI DUP1 DUP2 REVERT JUMPDEST DUP2 CALLDATALOAD PUSH8 0xFFFFFFFFFFFFFFFF DUP2 GT ISZERO PUSH2 0x5F5 JUMPI DUP2 DUP3 REVERT JUMPDEST PUSH2 0x601 DUP5 DUP3 DUP6 ADD PUSH2 0x483 JUMP JUMPDEST SWAP5 SWAP4 POP POP POP POP JUMP JUMPDEST PUSH1 0x0 DUP1 PUSH1 0x40 DUP4 DUP6 SUB SLT ISZERO PUSH2 0x61B JUMPI DUP1 DUP2 REVERT JUMPDEST DUP3 CALLDATALOAD DUP1 ISZERO ISZERO DUP2 EQ PUSH2 0x62A JUMPI DUP2 DUP3 REVERT JUMPDEST SWAP2 POP PUSH1 0x20 DUP4 ADD CALLDATALOAD PUSH8 0xFFFFFFFFFFFFFFFF DUP2 GT ISZERO PUSH2 0x645 JUMPI DUP2 DUP3 REVERT JUMPDEST PUSH2 0x651 DUP6 DUP3 DUP7 ADD PUSH2 0x483 JUMP JUMPDEST SWAP2 POP POP SWAP3 POP SWAP3 SWAP1 POP JUMP JUMPDEST PUSH1 0x0 PUSH1 0x20 DUP3 DUP5 SUB SLT ISZERO PUSH2 0x66C JUMPI DUP1 DUP2 REVERT JUMPDEST POP CALLDATALOAD SWAP2 SWAP1 POP JUMP JUMPDEST PUSH1 0x0 DUP2 MLOAD DUP1 DUP5 MSTORE PUSH1 0x20 DUP1 DUP6 ADD DUP1 DUP2 SWAP7 POP DUP3 DUP5 MUL DUP2 ADD SWAP2 POP DUP3 DUP7 ADD DUP6 JUMPDEST DUP6 DUP2 LT ISZERO PUSH2 0x6CF JUMPI DUP3 DUP5 SUB DUP10 MSTORE DUP2 MLOAD DUP1 MLOAD ISZERO ISZERO DUP6 MSTORE DUP6 ADD MLOAD PUSH1 0x40 DUP7 DUP7 ADD DUP2 SWAP1 MSTORE PUSH2 0x6BB DUP2 DUP8 ADD DUP4 PUSH2 0x6DC JUMP JUMPDEST SWAP11 DUP8 ADD SWAP11 SWAP6 POP POP POP SWAP1 DUP5 ADD SWAP1 PUSH1 0x1 ADD PUSH2 0x68F JUMP JUMPDEST POP SWAP2 SWAP8 SWAP7 POP POP POP POP POP POP POP JUMP JUMPDEST PUSH1 0x0 DUP2 MLOAD DUP1 DUP5 MSTORE PUSH2 0x6F4 DUP2 PUSH1 0x20 DUP7 ADD PUSH1 0x20 DUP7 ADD PUSH2 0x884 JUMP JUMPDEST PUSH1 0x1F ADD PUSH1 0x1F NOT AND SWAP3 SWAP1 SWAP3 ADD PUSH1 0x20 ADD SWAP3 SWAP2 POP POP JUMP JUMPDEST PUSH1 0x0 DUP3 MLOAD PUSH2 0x71A DUP2 DUP5 PUSH1 0x20 DUP8 ADD PUSH2 0x884 JUMP JUMPDEST SWAP2 SWAP1 SWAP2 ADD SWAP3 SWAP2 POP POP JUMP JUMPDEST PUSH1 0x1 PUSH1 0x1 PUSH1 0xA0 SHL SUB SWAP2 SWAP1 SWAP2 AND DUP2 MSTORE PUSH1 0x20 ADD SWAP1 JUMP JUMPDEST PUSH1 0x0 PUSH1 0x20 DUP3 MSTORE PUSH2 0x5C7 PUSH1 0x20 DUP4 ADD DUP5 PUSH2 0x673 JUMP JUMPDEST SWAP1 DUP2 MSTORE PUSH1 0x20 ADD SWAP1 JUMP JUMPDEST PUSH1 0x20 DUP1 DUP3 MSTORE DUP2 DUP2 ADD MSTORE PUSH32 0x4D756C746963616C6C206167677265676174653A2063616C6C206661696C6564 PUSH1 0x40 DUP3 ADD MSTORE PUSH1 0x60 ADD SWAP1 JUMP JUMPDEST PUSH1 0x20 DUP1 DUP3 MSTORE PUSH1 0x24 SWAP1 DUP3 ADD MSTORE PUSH32 0x4D756C746963616C6C32207472794167677265676174653A2063616C6C206661 PUSH1 0x40 DUP3 ADD MSTORE PUSH4 0x1A5B1959 PUSH1 0xE2 SHL PUSH1 0x60 DUP3 ADD MSTORE PUSH1 0x80 ADD SWAP1 JUMP JUMPDEST PUSH1 0x0 PUSH1 0x40 DUP3 ADD DUP5 DUP4 MSTORE PUSH1 0x20 PUSH1 0x40 DUP2 DUP6 ADD MSTORE DUP2 DUP6 MLOAD DUP1 DUP5 MSTORE PUSH1 0x60 DUP7 ADD SWAP2 POP PUSH1 0x60 DUP4 DUP3 MUL DUP8 ADD ADD SWAP4 POP DUP3 DUP8 ADD DUP6 JUMPDEST DUP3 DUP2 LT ISZERO PUSH2 0x827 JUMPI PUSH1 0x5F NOT DUP9 DUP8 SUB ADD DUP5 MSTORE PUSH2 0x815 DUP7 DUP4 MLOAD PUSH2 0x6DC JUMP JUMPDEST SWAP6 POP SWAP3 DUP5 ADD SWAP3 SWAP1 DUP5 ADD SWAP1 PUSH1 0x1 ADD PUSH2 0x7F9 JUMP JUMPDEST POP SWAP4 SWAP9 SWAP8 POP POP POP POP POP POP POP POP JUMP JUMPDEST PUSH1 0x0 DUP5 DUP3 MSTORE DUP4 PUSH1 0x20 DUP4 ADD MSTORE PUSH1 0x60 PUSH1 0x40 DUP4 ADD MSTORE PUSH2 0x854 PUSH1 0x60 DUP4 ADD DUP5 PUSH2 0x673 JUMP JUMPDEST SWAP6 SWAP5 POP POP POP POP POP JUMP JUMPDEST PUSH1 0x40 MLOAD DUP2 DUP2 ADD PUSH8 0xFFFFFFFFFFFFFFFF DUP2 GT DUP3 DUP3 LT OR ISZERO PUSH2 0x87C JUMPI PUSH1 0x0 DUP1 REVERT JUMPDEST PUSH1 0x40 MSTORE SWAP2 SWAP1 POP JUMP JUMPDEST PUSH1 0x0 JUMPDEST DUP4 DUP2 LT ISZERO PUSH2 0x89F JUMPI DUP2 DUP2 ADD MLOAD DUP4 DUP3 ADD MSTORE PUSH1 0x20 ADD PUSH2 0x887 JUMP JUMPDEST DUP4 DUP2 GT ISZERO PUSH2 0x8AE JUMPI PUSH1 0x0 DUP5 DUP5 ADD MSTORE JUMPDEST POP POP POP POP JUMP INVALID LOG2 PUSH5 0x6970667358 0x22 SLT KECCAK256 PUSH3 0x83CFA0 0xC1 CODECOPY 0xE5 PUSH8 0xE5CC2CDD892B9A54 PUSH15 0x60AD5AC2BA6B13079E467A5F3F00A5 PUSH5 0x736F6C6343 STOP MOD 0xC STOP CALLER "
				},
				"gasEstimates": {
					"creation": {
						"codeDepositCost": "456400",
						"executionCost": "493",
						"totalCost": "456893"
					},
					"external": {
						"aggregate((address,bytes)[])": "infinite",
						"getBlockHash(uint256)": "410",
						"getCurrentBlockCoinbase()": "295",
						"getCurrentBlockDifficulty()": "227",
						"getCurrentBlockGasLimit()": "249",
						"getCurrentBlockTimestamp()": "228",
						"getEthBalance(address)": "1195",
						"getLastBlockHash()": "301",
						"tryAggregate(bool,(address,bytes)[])": "infinite",
						"tryBlockAndAggregate(bool,(address,bytes)[])": "infinite"
					}
				},
				"methodIdentifiers": {
					"aggregate((address,bytes)[])": "252dba42",
					"getBlockHash(uint256)": "ee82ac5e",
					"getCurrentBlockCoinbase()": "a8b0574e",
					"getCurrentBlockDifficulty()": "72425d9d",
					"getCurrentBlockGasLimit()": "86d516e8",
					"getCurrentBlockTimestamp()": "0f28c97d",
					"getEthBalance(address)": "4d2301cc",
					"getLastBlockHash()": "27e86d6e",
					"tryAggregate(bool,(address,bytes)[])": "bce38bd7",
					"tryBlockAndAggregate(bool,(address,bytes)[])": "399542e9"
				}
			},
			"storageLayout": {
				"storage": [],
				"types": null
			},
			"userdoc": {
				"kind": "user",
				"methods": {
					"aggregate((address,bytes)[])": {
						"notice": "聚合多个调用，如果其中一个失败，整个调用会回滚"
					},
					"tryAggregate(bool,(address,bytes)[])": {
						"notice": "聚合多个调用，允许部分调用失败而不回滚全局交易"
					},
					"tryBlockAndAggregate(bool,(address,bytes)[])": {
						"notice": "聚合调用并返回区块信息（PancakeSwap 前端常用）"
					}
				},
				"version": 1
			}
		}
	}
}